{
  "_format": "hh-sol-artifact-1",
  "contractName": "HelloWorld",
  "sourceName": "contracts/HelloWorld.sol",
  "abi": [
    {
      "inputs": [],
      "stateMutability": "nonpayable",
      "type": "constructor"
    },
    {
      "inputs": [],
      "name": "helloWorld",
      "outputs": [
        {
          "internalType": "string",
          "name": "",
          "type": "string"
        }
      ],
      "stateMutability": "view",
      "type": "function"
    }
  ],
  "bytecode": "0x608060405234801561001057600080fd5b506040805180820190915260088152673730b9b4b639b4b760c11b602082015260009061003d90826100e2565b506101a1565b634e487b7160e01b600052604160045260246000fd5b600181811c9082168061006d57607f821691505b60208210810361008d57634e487b7160e01b600052602260045260246000fd5b50919050565b601f8211156100dd57600081815260208120601f850160051c810160208610156100ba5750805b601f850160051c820191505b818110156100d9578281556001016100c6565b5050505b505050565b81516001600160401b038111156100fb576100fb610043565b61010f816101098454610059565b84610093565b602080601f831160018114610144576000841561012c5750858301515b600019600386901b1c1916600185901b1785556100d9565b600085815260208120601f198616915b8281101561017357888601518255948401946001909101908401610154565b50858210156101915787850151600019600388901b60f8161c191681555b5050505050600190811b01905550565b61019e806101b06000396000f3fe608060405234801561001057600080fd5b506004361061002b5760003560e01c8063c605f76c14610030575b600080fd5b61003861004e565b60405161004591906100e0565b60405180910390f35b60606000805461005d9061012e565b80601f01602080910402602001604051908101604052809291908181526020018280546100899061012e565b80156100d65780601f106100ab576101008083540402835291602001916100d6565b820191906000526020600020905b8154815290600101906020018083116100b957829003601f168201915b5050505050905090565b600060208083528351808285015260005b8181101561010d578581018301518582016040015282016100f1565b506000604082860101526040601f19601f8301168501019250505092915050565b600181811c9082168061014257607f821691505b60208210810361016257634e487b7160e01b600052602260045260246000fd5b5091905056fea26469706673582212207154d24bdfce4ca1bfd439990ebb7c8488159a5269816858fe43bdc5234c982764736f6c63430008110033",
  "linkReferences": {},
  "deployedLinkReferences": {}
}